:020000040800F2
:1000000000040020C1110008E1120008E1120008FC
:10001000E1120008E1120008E1120008E1120008F4
:10002000E1120008E1120008E112000811130008B3
:10003000E1120008E1120008E1120008E1130008D3
:10004000E1120008F12F0008E1120008E112000897
:10005000E1120008E1120008112E0008412E0008EC
:10006000712E0008A12E0008D12E000811270008CB
:100070004127000871270008A1270008D1270008A0
:100080000128000831280008E1120008E1120008E8
:10009000E1120008E1120008E1120008012F000837
:1000A000E112000811320008E1120008E112000814
:1000B00041320008E11200082160000811360008F2
:1000C00011370008E1120008E1120008E1120008EF
:1000D000E1120008313E0008513E0008713E000860
:1000E000712F00082130000851300008E11200088B
:1000F000E1120008E1120008E1120008E112000814
:10010000E1120008E112000871320008E112000853
:10011000E1120008E1120008E1120008E1120008F3
:100120006128000891280008C1280008F12800086B
:1001300070B584B002F0B4F8332501F0E1F92F4E28
:1001400004F0B6FE04F03CFE39E001F009FC06F0D4
:100150002FF800F0AFF94FF480430022C4F28F0370
:1001600000F038FBF368CDE90001184600F092F981
:100170004FF48043C4F28F03002200F02BFB204A8F
:10018000CDE902012146204606F082FA06F020F869
:1001900000F090F94FF48043C4F28F03002200F086
:1001A00019FB013DCDE90001164A2046012106F068
:1001B0006FFAADB20B20214604F0D2FE2DB105F04E
:1001C000D7FF04466420002CBFD0002404F078FA46
:1001D0003CB1237F0E2B0CD0322001F0C1FB002C50
:1001E000F7D109484FF42C71402204F071FA04460B
:1001F000F2E7204601F024FC0024EDE7781000200F
:10020000E08C0008F08C0008208D0008AFF300801F
:1002100081F0004102E000BF83F0004330B54FEAB7
:1002200041044FEA430594EA050F08BF90EA020F24
:100230001FBF54EA000C55EA020C7FEA645C7FEAB7
:10024000655C00F0E2804FEA5454D4EB5555B8BFDA
:100250006D420CDD2C4480EA020281EA030382EA4B
:10026000000083EA010180EA020281EA0303362DDD
:1002700088BF30BD11F0004F4FEA01314FF4801CB0
:100280004CEA113102D0404261EB410113F0004FC2
:100290004FEA03334CEA133302D0524263EB430379
:1002A00094EA050F00F0A780A4F10104D5F1200E17
:1002B0000DDB02FA0EFC22FA05F2801841F1000172
:1002C00003FA0EF2801843FA05F359410EE0A5F146
:1002D00020050EF1200E012A03FA0EFC28BF4CF077
:1002E000020C43FA05F3C01851EBE37101F000452D
:1002F00007D54FF0000EDCF1000C7EEB00006EEB3A
:100300000101B1F5801F1BD3B1F5001F0CD34908C3
:100310005FEA30004FEA3C0C04F101044FEA44521A
:1003200012F5800F80F09A80BCF1004F08BF5FEAA1
:10033000500C50F1000041EB045141EA050130BD81
:100340005FEA4C0C404141EB010111F4801FA4F124
:100350000104E9D191F0000F04BF01460020B1FA79
:1003600081F308BF2033A3F10B03B3F120020CDAB1
:100370000C3208DD02F1140CC2F10C0201FA0CF08F
:1003800021FA02F10CE002F11402D8BFC2F1200CF4
:1003900001FA02F120FA0CFCDCBF41EA0C019040AA
:1003A000E41AA2BF01EB0451294330BD6FEA0404F3
:1003B0001F3C1CDA0C340EDC04F11404C4F12002DE
:1003C00020FA04F001FA02F340EA030021FA04F3F0
:1003D00045EA030130BDC4F10C04C4F1200220FA47
:1003E00002F001FA04F340EA0300294630BD21FA85
:1003F00004F0294630BD94F0000F83F4801306BF4B
:1004000081F480110134013D4EE77FEA645C18BF3E
:100410007FEA655C29D094EA050F08BF90EA020FD5
:1004200005D054EA000C04BF1946104630BD91EACD
:10043000030F1EBF0021002030BD5FEA545C05D1D0
:100440004000494128BF41F0004130BD14F580040F
:100450003CBF01F5801130BD01F0004545F0FE4183
:1004600041F470014FF0000030BD7FEA645C1ABFB8
:10047000194610467FEA655C1CBF0B46024650EAEF
:10048000013406BF52EA033591EA030F41F400211B
:1004900030BD00BF90F0000F04BF0021704730B5A1
:1004A0004FF4806404F132044FF000054FF0000176
:1004B00050E700BF90F0000F04BF0021704730B537
:1004C0004FF4806404F1320410F0004548BF40420C
:1004D0004FF000013EE700BF42004FEAE2014FEA61
:1004E00031014FEA02701FBF12F07F4393F07F4F3C
:1004F00081F06051704792F0000F14BF93F07F4F6E
:10050000704730B54FF4607401F0004521F00041B0
:1005100020E700BF50EA010208BF704730B54FF036
:1005200000050AE050EA010208BF704730B511F03B
:10053000004502D5404261EB41014FF4806404F173
:1005400032045FEA915C3FF4DCAE4FF003025FEAF5
:10055000DC0C18BF03325FEADC0C18BF033202EB7D
:10056000DC02C2F1200300FA03FC20FA02F001FAD7
:1005700003FE40EA0E0021FA02F11444C1E600BF76
:1005800070B54FF0FF0C4CF4E06C1CEA11541DBF29
:100590001CEA135594EA0C0F95EA0C0F00F0DEF8F4
:1005A0002C4481EA030621EA4C5123EA4C5350EAD9
:1005B000013518BF52EA033541F4801143F480132A
:1005C00038D0A0FB02CE4FF00005E1FB02E506F0BB
:1005D0000042E0FB03E54FF00006E1FB03569CF010
:1005E000000F18BF4EF0010EA4F1FF04B6F5007F16
:1005F00064F5407404D25FEA4E0E6D4146EB060688
:1006000042EAC62141EA55514FEAC52040EA5E5010
:100610004FEACE2EB4F1FD0C88BFBCF5E06F1ED8BA
:10062000BEF1004F08BF5FEA500E50F1000041EBF1
:10063000045170BD06F0004646EA010140EA02009E
:1006400081EA0301B4EB5C04C2BFD4EB0C0541EAC0
:10065000045170BD41F480114FF0000E013C00F3D5
:10066000AB8014F1360FDEBF002001F0004170BDF9
:10067000C4F10004203C35DA0C341BDC04F1140412
:10068000C4F1200500FA05F320FA04F001FA05F29E
:1006900040EA020001F0004221F0004110EBD3706B
:1006A00021FA04F642EB06015EEA430E08BF20EA97
:1006B000D37070BDC4F10C04C4F1200500FA04F33A
:1006C00020FA05F001FA04F240EA020001F00041CC
:1006D00010EBD37041F100015EEA430E08BF20EA3F
:1006E000D37070BDC4F1200500FA05F24EEA020E87
:1006F00020FA04F301FA05F243EA020321FA04F0B6
:1007000001F0004121FA04F220EA020000EBD3706C
:100710005EEA430E08BF20EAD37070BD94F0000F6C
:100720000FD101F00046400041EB010111F4801FA0
:1007300008BF013CF7D041EA060195F0000F18BF51
:10074000704703F00046520043EB030313F4801F8D
:1007500008BF013DF7D043EA0603704794EA0C0F47
:100760000CEA135518BF95EA0C0F0CD050EA41065D
:1007700018BF52EA4306D1D181EA030101F00041DA
:100780004FF0000070BD50EA410606BF1046194602
:1007900052EA430619D094EA0C0F02D150EA01360E
:1007A00013D195EA0C0F05D152EA03361CBF10464F
:1007B00019460AD181EA030101F0004141F0FE41EE
:1007C00041F470014FF0000070BD41F0FE4141F472
:1007D000780170BD70B54FF0FF0C4CF4E06C1CEA72
:1007E00011541DBF1CEA135594EA0C0F95EA0C0F27
:1007F00000F0A7F8A4EB050481EA030E52EA0335E2
:100800004FEA013100F088804FEA03334FF0805502
:1008100045EA131343EA12634FEA022245EA11152F
:1008200045EA10654FEA00260EF000419D4208BFE0
:10083000964244F1FD0404F5407402D25B084FEA8D
:100840003202B61A65EB03055B084FEA32024FF439
:1008500080104FF4002CB6EB020E75EB030E22BF96
:10086000B61A754640EA0C005B084FEA3202B6EB56
:10087000020E75EB030E22BFB61A754640EA5C0005
:100880005B084FEA3202B6EB020E75EB030E22BF95
:10089000B61A754640EA9C005B084FEA3202B6EB96
:1008A000020E75EB030E22BFB61A754640EADC0055
:1008B00055EA060E18D04FEA051545EA16754FEAB7
:1008C00006164FEAC30343EA52734FEAC2025FEAD5
:1008D0001C1CC0D111F4801F0BD141EA00014FF064
:1008E00000004FF0004CB6E711F4801F04BF014335
:1008F0000020B4F1FD0C88BFBCF5E06F3FF6AFAE51
:10090000B5EB030C04BFB6EB020C5FEA500C50F1E0
:10091000000041EB045170BD0EF0004E4EEA113163
:1009200014EB5C04C2BFD4EB0C0541EA045170BD6A
:1009300041F480114FF0000E013C90E645EA060EAE
:100940008DE60CEA135594EA0C0F08BF95EA0C0FDC
:100950003FF43BAF94EA0C0F0AD150EA01347FF424
:1009600034AF95EA0C0F7FF425AF104619462CE7FB
:1009700095EA0C0F06D152EA03353FF4FDAE10465E
:10098000194622E750EA410618BF52EA43067FF4AF
:10099000C5AE50EA41047FF40DAF52EA43057FF43F
:1009A000EBAE12E7000000000000000000000000B5
:1009B0004FF0FF3C06E000BF4FF0010C02E000BF2B
:1009C0004FF0010C4DF804CD4FEA410C7FEA6C5C0E
:1009D0004FEA430C18BF7FEA6C5C1BD001B050EAB1
:1009E000410C0CBF52EA430C91EA030F02BF90EA9C
:1009F000020F0020704710F1000F91EA030F58BF5B
:100A0000994208BF90422CBFD8176FEAE37040F0BC
:100A1000010070474FEA410C7FEA6C5C02D150EA5A
:100A2000013C07D14FEA430C7FEA6C5CD6D152EA15
:100A3000033CD3D05DF8040B704700BF84461046DA
:100A400062468C461946634600E000BF01B5FFF7D9
:100A5000B7FF002848BF10F1000F01BD4DF808EDA9
:100A6000FFF7F4FF0CBF012000205DF808FB00BF7A
:100A70004DF808EDFFF7EAFF34BF012000205DF8D4
:100A800008FB00BF4DF808EDFFF7E0FF94BF012021
:100A900000205DF808FB00BF4DF808EDFFF7CEFF22
:100AA00094BF012000205DF808FB00BF4DF808ED61
:100AB000FFF7C4FF34BF012000205DF808FB00BF32
:100AC0004A0011D212F5001211D20DD56FF47873CD
:100AD000B3EB62520ED44FEAC12343F0004343EA22
:100AE000505323FA02F070474FF00000704750EA6D
:100AF000013002D14FF0FF3070474FF000007047D7
:100B000000210A2200F0F4B900220A2300F050B9B3
:100B100070B48407034644D0541E002A3FD0CEB29E
:100B200002E0002C3BD0144603F8016B13F0030FD6
:100B30001D4604F1FF32F4D1032C29D9CAB20F2C7F
:100B400084BF2B46264642EA022242EA024211D9DB
:100B5000103E1A605A609A60DA6010330F2EF7D890
:100B6000A4F1100304F00F0423F00F031033032C3F
:100B70001D440DD92E462346043B46F8042B032B77
:100B8000FAD8231F04F0030423F003030433ED1801
:100B90002CB1C9B22C1905F8011BA542FBD170BCC0
:100BA000704705461446C7E700000000000000003B
:100BB0000F4B70B41D6810F8013BEC181A466478AE
:100BC00004F00304012C11F8014B08BF03F12002CB
:100BD0002E192346767806F00306012E08BF04F18D
:100BE0002003D21A01D1002BE5D1104670BC70470A
:100BF00000080020000000000000000000000000CD
:100C0000C9B2F0B400294BD083070FD00378002B72
:100C100073D0994242D0431C05E013F8012B002AFF
:100C20003BD091423AD09A071846F6D1036841EA80
:100C30000127A3F1013247EA074722EA030212F033
:100C4000803F1CD17B40A3F1013222EA030313F061
:100C5000803F14D1021D02E014F0803F0FD11046F6
:100C600052F8043BA3F1013687EA030426EA0303A2
:100C7000A4F1013513F0803F25EA0404ECD0037899
:100C8000002B3AD0994209D0431C01E0914205D093
:100C9000184613F8012B002AF8D11046F0BC704713
:100CA00081070DD00378002BF8D0431C02E00278B6
:100CB000002AF3D013F0030F184603F10103F6D115
:100CC0000368A3F1013222EA030313F0803F0AD143
:100CD000021D104652F8041BA1F1013424EA01015F
:100CE00011F0803FF5D00378002BD7D0431C184675
:100CF00001330278002AFAD1D0E71846CEE700BFC8
:100D000041EA000313F0030F034670B425D0AAB1E3
:100D10000C78013A03F8014B4CB11C4672B111F842
:100D2000015F013A04F8015B2346002DF6D12AB198
:100D30009A18002103F8011B9342FBD170BC704745
:100D40000E4651F8044BA4F1013525EA040515F0CF
:100D5000803F05D1043A43F8044B032AF0D8D6E784
:100D60003146D4E700000000000000000000000051
:100D7000F0B40478CCB10F78064697B10546BC4272
:100D80000AD00A4601E09C4206D012F8013F002B2F
:100D9000F9D1281AF0BC70476C7801361CB1354681
:100DA000EDE73846F6E7301AF4E72046F2E700BFF1
:100DB0002DE9F04F85B099460B4602914B490390BF
:100DC000D1F800801C4614F8015B08EB05012346AE
:100DD000497801F00801C9B20029F3D12D2D7BD04B
:100DE0002B2D05BF24460B460B4614F8015B39F04A
:100DF000100112D1D9F1010038BF0020302D04D0EC
:100E000058B14FF00A09CB4608E0217801F0DF0124
:100E1000582965D008B14FF00809CB46002B594638
:100E20000CBF6FF000464FF000468DE80C003046D6
:100E3000002700F09BF930468A46594600F068F8D2
:100E4000BC469DE80C0016E0303DA94525DD8445F3
:100E500094BF0021012151EAD77729D15545D4BF4C
:100E600000210121844518BF002109BB0BFB0C5C4C
:100E7000012714F8015B08EB0501497801F004062D
:100E8000F6B2002EE0D111F0030106D0012914BF03
:100E9000572137216D1AA945D9DC791C0BD0C3B96C
:100EA000604612B197B9029B136005B0BDE8F08FA0
:100EB0004FF0FF37DDE70399002B0CBF6FF00040C8
:100EC0004FF0004022230B60002AEED0013C029438
:100ED000E9E7CCF1000CE3E714F8015B012386E7B6
:100EE0004FF010096578CB46023497E700080020E0
:100EF00030B440F60804C2F200040D461346014621
:100F00002A46206830BCFFF753BF00BF0000000036
:100F10004A1E08BF7047C0F02481884240F2168103
:100F2000114200F01781B0FA80F3B1FA81F2A2EB1E
:100F30000303C3F11F0304A202EB03134FF00002EB
:100F40009F4600BFAFF30080B0EBC17F00BF42EB14
:100F5000020228BFA0EBC170B0EB817F00BF42EB63
:100F6000020228BFA0EB8170B0EB417F00BF42EBD3
:100F7000020228BFA0EB4170B0EB017F00BF42EB43
:100F8000020228BFA0EB0170B0EBC16F00BF42EBC3
:100F9000020228BFA0EBC160B0EB816F00BF42EB43
:100FA000020228BFA0EB8160B0EB416F00BF42EBB3
:100FB000020228BFA0EB4160B0EB016F00BF42EB23
:100FC000020228BFA0EB0160B0EBC15F00BF42EBA3
:100FD000020228BFA0EBC150B0EB815F00BF42EB23
:100FE000020228BFA0EB8150B0EB415F00BF42EB93
:100FF000020228BFA0EB4150B0EB015F00BF42EB03
:10100000020228BFA0EB0150B0EBC14F00BF42EB82
:10101000020228BFA0EBC140B0EB814F00BF42EB02
:10102000020228BFA0EB8140B0EB414F00BF42EB72
:10103000020228BFA0EB4140B0EB014F00BF42EBE2
:10104000020228BFA0EB0140B0EBC13F00BF42EB62
:10105000020228BFA0EBC130B0EB813F00BF42EBE2
:10106000020228BFA0EB8130B0EB413F00BF42EB52
:10107000020228BFA0EB4130B0EB013F00BF42EBC2
:10108000020228BFA0EB0130B0EBC12F00BF42EB42
:10109000020228BFA0EBC120B0EB812F00BF42EBC2
:1010A000020228BFA0EB8120B0EB412F00BF42EB32
:1010B000020228BFA0EB4120B0EB012F00BF42EBA2
:1010C000020228BFA0EB0120B0EBC11F00BF42EB22
:1010D000020228BFA0EBC110B0EB811F00BF42EBA2
:1010E000020228BFA0EB8110B0EB411F00BF42EB12
:1010F000020228BFA0EB4110B0EB011F00BF42EB82
:10110000020228BFA0EB0110B0EBC10F00BF42EB01
:10111000020228BFA0EBC100B0EB810F00BF42EB81
:10112000020228BFA0EB8100B0EB410F00BF42EBF1
:10113000020228BFA0EB4100B0EB010F00BF42EB61
:10114000020228BFA0EB0100104670470CBF01202F
:1011500000207047B1FA81F2C2F11F0220FA02F0BA
:10116000704708B14FF0FF3000F012B80029F8D0F6
:101170002DE90340FFF7CCFEBDE8064002FB00F37B
:10118000A1EB0301704700BF000000000000000059
:10119000704700BF000000000000000000000000D9
:1011A000704700BFAFF30080AFF30080AFF3008063
:1011B000FEE700BFAFF30080AFF30080AFF3008025
:1011C00072B6374880F30988022383F31488BFF38B
:1011D0006F8F344A344B9A420BD2D143C91821F055
:1011E0000301131F89184FF0553243F8042F8B4227
:1011F000FBD12E4A82420CD22D49131DC91A21F06F
:101200000301131F89184FF0553243F8042F8B4206
:10121000FBD102F0E5FE2749274B99420BD2C84388
:10122000C01820F00300254C043000231A595A50EE
:1012300004338342FAD1224A224B9A420AD2D14342
:10124000C91821F00301131F8918002243F8042F45
:101250008B42FBD1FFF7A4FF1B4D1C4B9D420BD2D1
:10126000EE43F618B608043D0136002455F8043F55
:1012700001349847B442F9D1FEF75AFF144D154B8B
:101280009D420BD2EE43F618B608043D0136002409
:1012900055F8043F01349847B442F9D1FFF788FF6D
:1012A00000080020000000200004002000040020AE
:1012B0000308002000080020700F0020388D00086F
:1012C000700F0020002C00203001000830010008C1
:1012D0003001000830010008AFF30080AFF3008058
:1012E000FEE700BFAFF30080AFF30080AFF30080F4
:1012F00072B6FEE7AFF30080AFF30080AFF300807B
:1013000000F0A6FA00DF00BFAFF30080AFF300806B
:10131000EFF30983203383F30988002383F31188D3
:10132000704700BFAFF30080AFF30080AFF30080E1
:1013300008B54FF440724FF46D43CEF20003C0F293
:10134000FA520021996007201021DA6000F0B0F80D
:101350000A204FF4007100F0ABF80B208021BDE8AB
:10136000084000F0A5B800BFAFF30080AFF30080E5
:10137000202383F311884FF46D43CEF200035B68A2
:1013800013F4006319D0EFF30983A3F1200282F371
:10139000098810494FF080708A6943F8040CD07FA7
:1013A00009689268896858B1914294BF002201226D
:1013B00062B1094A43F8082C704783F311887047DB
:1013C000914234BF00220122002AF2D1034A43F89D
:1013D000082C70478810002001130008041300082F
:1013E00008B5202383F3118800F0C2F8002383F3AB
:1013F0001188BDE80840FFF7BBBF00BFAFF3008016
:101400002DE9F04FC1F80CD0D0F80CD0BDE8F08F2A
:10141000002383F311882846A04700F0E9FA7047BB
:1014200000F0030370B4DB00FF2505FA03F501FAB1
:1014300003F1012200F01F0302FA03F284084FF4C3
:101440006143CEF20003C03453F82460400926EA19
:1014500005050D4300F1600643F8245043F82620AB
:1014600043F8202070BC7047AFF30080AFF30080DA
:1014700010B400F01F03012404FA03F400F0030287
:10148000FF23D20003FA02F241094FF46143CEF286
:1014900000032031800843F82140C03053F8201069
:1014A00021EA020243F8202010BC7047AFF300800D
:1014B00000F00303DB00FF2202FA03F201FA03F15A
:1014C00080084FF46D43CEF20003063010B453F899
:1014D000204024EA02020A4343F8202010BC70474F
:1014E000024B034A9B699A61FEE700BF8810002007
:1014F000F0810008AFF30080AFF30080AFF300800D
:1015000000B583B0FFF714FF00F0DAF800F060F8E0
:1015100000F0AEFD00F0F4FD40F670704021C2F224
:10152000000000F0A5F941F28801C2F200018861D3
:1015300001220277002383F3118862B648F200206B
:101540008969C0F600008861009340F6B87041F2E6
:10155000E143C021C0F60003C2F2000000F0E8F948
:1015600003B000BDAFF30080AFF30080AFF30080A5
:1015700038B5134B9B69DA7F0AB1013ADA771A6AF8
:10158000104C01321A62E36822680133A242E36020
:1015900014D09568013D956085B91368D1685C6089
:1015A0002360D560002383F31188106988472023C6
:1015B00083F3118822689368002BEED038BD00BFFA
:1015C0008810002078100020AFF30080AFF3008077
:1015D00041F27803C2F200034FF0FF329A6000221A
:1015E0005B601B60DA607047AFF30080AFF3008090
:1015F00070B40D4E03613468C260A568A94204D975
:101600002468491BA5688D42FAD363688160B4429F
:1016100043600460186018BFA36860601CBFC1EB22
:101620000301A16070BC704778100020AFF3008008
:101630000368074A93421FBF996882688A189A60B4
:101640004268002113600368C1605A60704700BFA0
:1016500078100020AFF30080AFF30080AFF300807C
:10166000202383F31188037F0D2B11D8DFE803F0CB
:1016700020101007100B101010101010100B436AE0
:101680009A6801329A6090E80C001A600268536010
:101690004FF0FF32426281680022074B02771B68DD
:1016A0009A688A42FBD25A680360426010605860B0
:1016B000002383F31188704788100020AFF3008067
:1016C00041F28803C2F2000300225B601B609A6053
:1016D0005B611B61704700BFAFF30080AFF3008018
:1016E00000228168054B02771B689A688A42FBD208
:1016F0005A6803604260106058607047881000208C
:1017000041F28803C2F2000310B499691A6808779D
:1017100014201468C87701201077104663601C609D
:101720009A6110BCFFF76CBEAFF30080AFF300808E
:1017300030B54B1C87B0054611D00B4C0B4AA36942
:1017400001A8FFF755FF2846FFF7DAFF049B13B106
:1017500001A8FFF76DFFA369586A07B030BDFFF716
:10176000CFFF014CF7E700BF88100020611600088A
:10177000F0B4144F0446BE698568B0680023854202
:1017800061620CD823773B461B689A689542FBD967
:101790005A682360626014605C60F0BC7047337705
:1017A0003B461B689A689042FBD95A683360726066
:1017B00020465E603146012316602377BC61F0BC91
:1017C000FFF71EBE88100020AFF30080AFF300804B
:1017D0000E4B30B41868996902688C6853601A60BF
:1017E000986114230125CB77002305770B770346F7
:1017F00000E01B689A68A242FBD25A680B604A60FC
:101800001160596030BCFFF7FBBD00BF881000209D
:101810000D4B30B41868996902688C6853600125D3
:101820001A609861002305770B77034600E01B6878
:101830009A68A242FBD85A680B604A6011605960EE
:1018400030BCFFF7DDBD00BF88100020AFF3008083
:10185000034B9B69DB7F0BB1FFF7DABFFFF7B8BF24
:1018600088100020AFF30080AFF30080AFF300805A
:10187000F0B441F28804C2F20004656900220461F8
:1018800000F12C06816000F1280745614FF0020C41
:10189000606101641424012180F81CC04277C47780
:1018A000C263826302628177826128618762066314
:1018B000C662F0BC704700BFAFF30080AFF300809A
:1018C0002DE9F003243941F28805C2F200054718DA
:1018D000D5F814C0C7604350069B00267B6041F2D8
:1018E0001143C0F600033B620223037714239046A2
:1018F00000F1280900F12C02C37701230561C0F82B
:101900000880C0F814C0044668614677C0F840807B
:10191000C6638663066283778661CCF81000C0F8E0
:1019200028900263C262BDE8F0037047AFF3008005
:1019300010B51C4682B0202383F311882346049CF3
:101940000094FFF7BDFF00210446FFF711FF0023BD
:1019500083F31188204602B010BD00BFAFF30080B2
:1019600008B50146202383F311880620FFF7E0FE27
:10197000002383F3118808BDAFF30080AFF300802C
:1019800008B5202383F31188054BD968411A02D08A
:101990000620FFF7CDFE002383F3118808BD00BFAA
:1019A00078100020AFF30080AFF30080AFF3008029
:1019B00038B50E4B9C69254655F8283F6062AB420E
:1019C00007D01A681846A262FFF78AFEA36AAB42E4
:1019D000F7D1637F9B0704D1636922691A61226989
:1019E00053610E20BDE83840FFF78ABE8810002002
:1019F000202383F31188FFF7DBBF00BFAFF3008024
:101A000038B50446202383F31188037F0E2B07D0BB
:101A1000084B826A9B6907201A60A362FFF770FE79
:101A2000656A002383F31188204600F009F82846F0
:101A300038BD00BF88100020AFF30080AFF30080F6
:101A40000146202383F31188827F0023013AD2B21A
:101A5000827783F3118812B9037F0E2B00D0704771
:101A6000437F03F00303012B09D0022BF7D1436915
:101A70000269406C1A610A69536100F001BC436954
:101A800002691A610269536100F092BBAFF30080F2
:101A9000F0B583B00D4617461E4600F041FB0446E4
:101AA00090B1202383F31188089C334629463A4697
:101AB0000094FFF705FF0123437700210446FFF759
:101AC00057FE002383F31188204603B0F0BD00BF0A
:101AD000202383F3118841F28803C2F200031869BE
:101AE0000023827F0132827783F31188704700BF21
:101AF00010B5202383F31188074B04699C4209D059
:101B0000A37F0133A377002383F31188FFF798FFA6
:101B1000204610BD0024F6E788100020AFF30080B7
:101B20000023406000608360704700BFAFF3008017
:101B3000F8B52F4A836805469469002B51D0A168F7
:101B40009A68914206D91A7F9960042A31D0052AF1
:101B50001CD092B12B461B689D4203D09968A268A5
:101B60009142F8D25A6804202360626014605C607D
:101B70006562BDE8F840FFF7C3BD93E80600116059
:101B800018461B685A60FFF7ABFDE3E758681A6810
:101B90005E6A02601F68324678601268964202D020
:101BA00090688842F9D251681A6059600B6053609E
:101BB000D0E758681A685E6A02601F68324678602B
:101BC0001268964212D090688842F9D251681A6021
:101BD00059600B605360B368A1689A688A42B2D3B7
:101BE000B8E7E36B8460C360E063F8BD3246EDE7BD
:101BF00088100020AFF30080AFF30080AFF30080C7
:101C000008B5202383F31188FFF792FF002383F3A5
:101C1000118808BDAFF30080AFF30080AFF3008000
:101C2000154A38B59069202383F31188C46B256861
:101C3000E368A542C3631CD0016C4BB11A689A4299
:101C400003D09268914238BF1146DB68002BF5D172
:101C50002B68EA6B8160236028465C600021A560E8
:101C6000E260EC63FFF784FD002383F311882046D4
:101C700038BD0023A360F7E788100020AFF3008091
:101C800070B4202383F3118841F28803C2F2000369
:101C90009D69066800240E60234601604D608A60DD
:101CA000CC6083F3118870BC704700BFAFF3008035
:101CB000202383F31188024600E01A46136883420A
:101CC00003D09942F9D10B681360002383F3118884
:101CD000704700BFAFF30080AFF30080AFF3008028
:101CE00008B5826B037F1143082B81630BD0092B4E
:101CF00000D008BD436A19408B42FAD1FFF7F0FCCF
:101D00000023436208BD436A1942F7D108BD00BFF2
:101D100070B504680546A0420E4609D0E3686068C5
:101D20003343E360A168FFF7DBFF2468A542F5D1E8
:101D300070BD00BFAFF30080AFF30080AFF3008051
:101D4000104B70B59E690446202383F31188B26B53
:101D500014EA02050ED121B92B4683F311882846D7
:101D600070BD08207462FFF7E3FC0028F4DBB26B5F
:101D700004EA020522EA0502B263002383F3118814
:101D8000284670BD88100020AFF30080AFF30080BC
:101D900010B4024659B1084B0D209B695A62546831
:101DA00083E814005360236010BCFFF7C1BC4FF000
:101DB000FF3010BC704700BF88100020AFF30080D8
:101DC00010B4C361019B8A180024406000608460E5
:101DD00041618161C1600261036210BC704700BF54
:101DE00038B50446C36800686361A3610023A0425C
:101DF000A3600AD06FF00105036823605C60FFF701
:101E00006FFC45622068A042F6D138BDAFF3008078
:101E1000426908B503468069824298681AD0013049
:101E2000986002F8011B19695A618A420BD218683E
:101E300098420DD002681A605360FFF751FC0023EE
:101E40004362184608BD1868DA6898425A61F1D1B1
:101E5000002008BD0028E2D06FF0030008BD00BFDD
:101E600070B5202304460E4683F31188C36903B17D
:101E70009847A568204631463DB9FFF789FF0028FD
:101E8000F7DA2B4683F3118870BDA369013DA56085
:101E900013F8010B2269A361934224BFE368A36195
:101EA000002383F3118870BDAFF30080AFF300808F
:101EB0002DE9F0471E460446C769202383F31188A5
:101EC0004FF0000801F1010901EB020A0FB12046B1
:101ED000B847A568204631464DB9FFF759FF00289D
:101EE000F7D02B4683F311884046BDE8F087A369FD
:101EF000013DA56013F8012B09F8012C2269A361AB
:101F0000934224BFE368A361002383F31188D14582
:101F100008F10108E8D0202383F3118809F10109B1
:101F2000D4E700BFAFF30080AFF30080AFF30080D1
:101F300010B4C361019B8C184060006082604161F5
:101F40008161C1600461036210BC7047AFF300801F
:101F5000F8B504460F461646202383F31188A5687A
:101F6000204631463DB9FFF713FF0028F7DA2B462C
:101F700083F31188F8BD6369013DA56003F8017B17
:101F800022696361934224BFE3686361E3690BB133
:101F900020469847002383F311881846F8BD00BFF8
:101FA0004169826910B591420346816816D00131BA
:101FB000996012F8014B19699A618A420BD218682C
:101FC000984206D002681A605360FFF789FB00232D
:101FD0004362204610BDDA689A61F0E70029E6D036
:101FE0006FF0020010BD00BFAFF30080AFF30080C0
:101FF0002DE9F0479A46044688461646D0F81C90CC
:10200000202383F311880027A56820466B1EEDB1BD
:10201000A36018F8013B656905F8013B2369656118
:102020009D4224BFE3686361B9F1000F00D0C84747
:10203000002383F311880137013E10D0202383F35E
:102040001188A56820466B1E002DE1D1204651461F
:10205000FFF79EFE0028D7D02B4683F31188384621
:10206000BDE8F087AFF30080AFF30080AFF30080EE
:1020700040F20001084841F2A80241F2A403C2F272
:102080000101C2F2000220F00700C2F2000321F0B9
:102090000701106019607047072C0020AFF3008023
:1020A000202383F31188094B09491A68096807300E
:1020B00020F00700891A88429ABF10181860002281
:1020C000002383F311881046704700BFA81000203A
:1020D000A4100020AFF30080AFF30080AFF30080C6
:1020E00041F2A40241F2A803C2F20002C2F20003CC
:1020F00010681B68C01A7047AFF30080AFF3008010
:1021000041F2B003C2F2000342F2A1010022C0F684
:10211000000103F1100019609A60DA60FFF700BD5A
:10212000F8B51F4E0731002818BF064606F110000B
:1021300021F0070506F10804FFF762FD00E01C46E8
:102140002368E3B15A689542F9D805F10801914234
:1021500012D84FF6F870CFF6FF70401B821818683F
:102160005F1858507A6027605D601C4644F8086B21
:10217000FFF756FD2046F8BD1A682260F5E7FFF725
:102180004FFD33684BB105F10800984728B100F1C5
:102190000804066045602046F8BD0024EAE700BF59
:1021A000B0100020AFF30080AFF30080AFF30080E9
:1021B00070B5064650F8080CA6F1080400F10805B1
:1021C0001030FFF71DFD2B46AB421A6801D0A34229
:1021D00002D21AB1944201D31346F5E756F8041C13
:1021E00046F8082C1C6001F1080256F8085CA0189B
:1021F000A84209D05A6802F1080159188C4211D03E
:10220000BDE87040FFF70CBD4068A25809180831BE
:1022100046F8041C46F8082C5A6802F108015918BF
:102220008C42EDD156F8040C56F8081C12180832EE
:1022300083E80600E4E700BFAFF30080AFF300805F
:1022400038B50E4C0D46002818BF044604F11000A6
:10225000FFF7D6FCA3686BB10022144658681B68D0
:1022600012180134002BF9D105B12A60FFF7D8FC10
:10227000204638BD1A461C46F6E700BFB0100020C5
:10228000202383F31188026800230A60016083F32E
:1022900011887047AFF30080AFF30080AFF3008088
:1022A00008B500F0E5FB00F00BFA48F20030C0F68C
:1022B000000001F08DF800F013F800F051F800F084
:1022C0007FF800F0B5F800F05BF900F0B9F9BDE86F
:1022D000084001F08DBE00BFAFF30080AFF3008077
:1022E00000F0F6BCAFF30080AFF30080AFF30080E6
:1022F00000230122027043608360C3600361436175
:102300001830FFF70DBC00BFAFF30080AFF30080C3
:1023100010B52023044683F31188416000F018FDB6
:1023200002232370002383F3118810BDAFF30080D4
:1023300038B51D460446202383F311880323037018
:102340008260C560016100F02BFD002383F31188DA
:1023500038BD00BFAFF30080AFF30080AFF3008063
:1023600000F0BEBEAFF30080AFF30080AFF300809B
:102370000123037000234360704700BFAFF3008068
:1023800010B52023044683F31188416000F020FF3C
:1023900002232370002383F3118810BDAFF3008064
:1023A00008B5202383F3118800F0A2FE002383F3F5
:1023B000118808BDAFF30080AFF30080AFF3008059
:1023C00000F06EBFAFF30080AFF30080AFF300808A
:1023D0000123037000234360704700BFAFF3008008
:1023E00010B52023044683F31188416000F080FF7C
:1023F00002232370002383F3118810BDAFF3008004
:102400000423037000F0D4BFAFF30080AFF300806B
:1024100008B5202383F31188FFF7F2FF002383F32D
:10242000118808BDAFF30080AFF30080AFF30080E8
:1024300001F0E6B9AFF30080AFF30080AFF30080A6
:1024400001230370002343600C30FFF769BB00BF1A
:1024500010B52023044683F31188416001F0E8F9A8
:1024600002232370002383F3118810BDAFF3008093
:1024700010B52023044683F3118801F099FA012353
:102480002370002383F3118810BD00BFAFF30080D9
:1024900080687047AFF30080AFF30080AFF3008037
:1024A00070B51E4684B00446202383F311880023B0
:1024B000089D8360032303700095099D33460195B1
:1024C0000A9D029501F09CFA431C06D0022323705A
:1024D000002383F3118804B070BD05232370F7E750
:1024E0000C30FFF78DBB00BFAFF30080AFF300806F
:1024F000FFF796BBAFF30080AFF30080AFF300802F
:102500000C30FFF7D5BC00BFAFF30080AFF3008005
:102510000C304FF0FF33FFF7CBBC00BFAFF30080B0
:102520003030FFF765BD00BFAFF30080AFF3008030
:1025300030304FF0FF33FFF75BBD00BFAFF30080DB
:102540000C30FFF78DBC00BFAFF30080AFF300800D
:102550000C304FF0FF31FFF783BC00BFAFF30080BA
:102560003030FFF7F5BC00BFAFF30080AFF3008061
:1025700030304FF0FF32FFF7EBBC00BFAFF300800D
:1025800001F086BCAFF30080AFF30080AFF30080B2
:1025900070B50B4648F220210546C0F600010446FE
:1025A00045F8041B82B065600125164604F154010C
:1025B0004022257200F10C000094FFF701FC00940A
:1025C00004F1300004F1940140223346FFF7B0FCDF
:1025D00002B070BDAFF30080AFF30080AFF30080B6
:1025E00010B52023044683F3118801F089FC0223EF
:1025F0002372002383F3118810BD00BFAFF3008066
:1026000038B5436904460D463BB104F10C00294638
:10261000FFF7FEFB00280BDB38BD04300421FFF779
:1026200077FB04F10C002946FFF7F2FB0028F3DAF0
:10263000201D8021BDE83840FFF76ABBAFF3008062
:1026400001F096BAAFF30080AFF30080AFF30080E3
:10265000002301220270436083600C30FFF760BAF0
:1026600010B52023044683F31188416001F0A8FAD5
:1026700002232370002383F3118810BDAFF3008081
:102680004FF48053CEF200035B688360704700BF55
:102690004FF48053CEF20003084982685B680968F2
:1026A0009B1AC2685B1A9342836004D80269934202
:1026B00038BF03617047C360704700BFD01000206F
:1026C00010B541F2D00486B00022C2F200042260AC
:1026D00004924FF0FF3205924FF4805342F2816230
:1026E000C0F60002CEF200035B68019242F29162F2
:1026F000C0F6000201A803930292FFF7C9FF039BF3
:10270000236006B010BD00BFAFF30080AFF30080C0
:1027100000230848C4F202031968026810B50F24A8
:1027200001F00F015C600AB140689047BDE81040BD
:10273000FEF71EBED4100020AFF30080AFF3008080
:1027400000230848C4F202031968826810B5F02417
:10275000C1F303115C600AB1C0689047BDE8104046
:10276000FEF706BED4100020AFF30080AFF3008068
:1027700000230948C4F202031968026910B54FF436
:102780007064C1F303215C600AB140699047BDE801
:102790001040FEF7EDBD00BFD4100020AFF3008065
:1027A00000230948C4F202031968826910B54FF486
:1027B0007044C1F303315C600AB1C0699047BDE861
:1027C0001040FEF7D5BD00BFD4100020AFF300804D
:1027D00000230948C4F202031968026A10B54FF4D5
:1027E0007024C1F303415C600AB1406A9047BDE8C0
:1027F0001040FEF7BDBD00BFD4100020AFF3008035
:1028000000230948C4F202031968826A10B54FF424
:102810007004C1F303515C600AB1C06A9047BDE81F
:102820001040FEF7A5BD00BFD4100020AFF300801C
:1028300000230948C4F202031968026B10B54FF077
:102840007064C1F303615C600AB1406B9047BDE8FE
:102850001040FEF78DBD00BFD4100020AFF3008004
:102860004FF480630848C4F202031968826B10B504
:102870000F2401F00F015C600AB1C06B9047BDE806
:102880001040FEF775BD00BFD4100020AFF30080EC
:102890004FF480630848C4F202031968026C10B553
:1028A000F024C1F303115C600AB1406C9047BDE8AD
:1028B0001040FEF75DBD00BFD4100020AFF30080D4
:1028C0004FF480630848C4F202031968826C10B5A3
:1028D0004FF47064C1F303215C600AB1C06C90478F
:1028E000BDE81040FEF744BDD4100020AFF30080D7
:1028F0004FF48063C4F20203196810B5C1F30331C9
:1029000039B10E484FF47044026D5C600AB1406DFD
:1029100090474FF48063C4F202031968C1F3034186
:1029200039B106484FF47024826D5C600AB1C06D05
:102930009047BDE81040FEF71BBD00BFD41000203B
:102940000D4930B400230D4D0D4C0B601A4619464D
:10295000E8580C330160A1500832902BF8D10021C7
:102960004FF480634FF0FF32C4F20201C4F202035D
:102970004A605A6030BC7047341100204082000821
:10298000D4100020AFF30080AFF30080AFF30080DD
:10299000F8B5447A4FF0010C0CFA04F61E4D2F687E
:1029A0003E4234D1DFF874C03E430CEBC4077B6079
:1029B00073061CBF4FF48053C4F202032E604CF820
:1029C000342018BF5C6945681CBF44F001045C6199
:1029D00016F4786F1FBF4FF48053C4F202035C6992
:1029E00044F0020418BF5C6103680F271C6824F0E0
:1029F0000F041C60067A002407FA06F62E601C609D
:102A00003AB1807A0901FEF70BFD2046F8BD604619
:102A1000F8BD1046F8BD00BF34110020D4100020CE
:102A200010B50446807AFEF723FD637A012202FA8C
:102A300003F30E4A116821EA030313605A0601BF2B
:102A40004FF48052C4F20202516921F0010108BF23
:102A5000516113F4786F01BF4FF48053C4F2020345
:102A60005A6922F0020208BF5A6110BD34110020D9
:102A70004FF4805370B4C4F2020300214FF0FF35CD
:102A80004EF2100241F63F141869CEF200021D61A9
:102A9000C0F201041961DE684EF6F050DD60D960C5
:102AA0005460916007211160CEF20000C2684FF4BB
:102AB000805142F08072C260CEF2000108684FF48B
:102AC000E04240F001000860D969C4F2000241F020
:102AD0008051D961D96941F00061D961136843F42B
:102AE0008073136070BCFFF72BBF00BFAFF3008093
:102AF0004FF48053C4F202031A68194642F00102EF
:102B00001A600A684FF480539207C4F20203F8D5A2
:102B10001A68194602F0F9021A6000225A604A68DF
:102B20004FF4805312F00C0FC4F20203F7D11A686D
:102B3000194642F480321A600A684FF480539003B9
:102B4000C4F20203F8D55A68194642F4E8125A60F2
:102B50001A6842F080721A600A684FF4805392013A
:102B6000C4F20203F8D54FF44441C0F21D014FF402
:102B700000525960C4F202021221116059681A46CB
:102B800041F002015960536803F00C03082BFAD19D
:102B9000704700BFAFF30080AFF30080AFF3008059
:102BA000F8B50D462907044629D5C36A01691A6894
:102BB0005D68166826F00F0616601B7A0F2606FA67
:102BC00003F6826A8B6800212E6091602BB105228A
:102BD000027098472378052B5FD0002222612023C2
:102BE00083F31188636933B162614FF0FF32184695
:102BF0005A62FEF775FD002383F31188F8BD6A075A
:102C000006D503695B681BB1C268816852089847A2
:102C1000AB07F3D523691A78002A2ED1E16AA66A98
:102C200091E88100056825F00F050560097A0F20FD
:102C300000FA01F15D683960B260002D3DD0E268B4
:102C40000421012A217034D95988520801FB02F16C
:102C5000A368204603EB4101A8472378042B23D027
:102C6000202383F311886369002BC4D000226261A2
:102C700018465A62FEF734FDBDE75D68002DBDD0F1
:102C8000E268012A0CD95988520801FB02F1A368B5
:102C9000204603EB4101A847F8BD022323709CE7BF
:102CA0002046A168A847F8BD0223237000232361B2
:102CB000D6E72046A168A847CFE702232370256105
:102CC000CEE700BFAFF30080AFF30080AFF300802A
:102CD00010B51C4C2046FFF70BFB42F28A534FF411
:102CE00080522363C4F20202906917494FF41053D3
:102CF000C4F2010340F40070E162A362906100221B
:102D00005A6001229A60092219469A608A684FF433
:102D100010531007C4F20103F8D405229A60194633
:102D20008B684FF4105213F00403C4F20102F7D180
:102D30004FF480519360C4F202018B6923F4007355
:102D40008B6110BD3811002040820008AFF3008075
:102D5000037810B5012B044600D010BD0E4B9842ED
:102D600004D0A36A00225A609A6010BD05210B4A64
:102D70002346C06AFFF70CFEE36A42F24C42196830
:102D8000C4F201024FF480538A60C4F202039A69CC
:102D900042F400729A61E4E738110020A12B000888
:102DA0000369F0B41978026B09B142F02002C168DE
:102DB0005E880129C46A88BF4E438568216888BF40
:102DC00042F00402DC68CD604E600A600D68826AE1
:102DD000186945F0010510F4841F0D6044F48074F7
:102DE00014BF40F4807140F4817154605F699E6942
:102DF000DD691C6A41F001015B6A08439060D7609D
:102E00001661D562146353639160F0BC704700BFD4
:102E100041F26C10C2F2000008B542684FF48063C2
:102E20000121C4F201035961536800219847BDE8AC
:102E30000840FEF79DBA00BFAFF30080AFF30080FB
:102E400041F26C10C2F2000008B542684FF4806392
:102E50000221C4F201035961D36801219847BDE8FA
:102E60000840FEF785BA00BFAFF30080AFF30080E3
:102E700041F26C10C2F2000008B542684FF4806362
:102E80000421C4F201035961536902219847BDE846
:102E90000840FEF76DBA00BFAFF30080AFF30080CB
:102EA00041F26C10C2F2000008B542684FF4806332
:102EB0000821C4F201035961D36903219847BDE891
:102EC0000840FEF755BA00BFAFF30080AFF30080B3
:102ED00041F26C10C2F2000008B542684FF4806302
:102EE0001021C4F201035961536A04219847BDE8D7
:102EF0000840FEF73DBA00BFAFF30080AFF300809B
:102F00004FF48063C4F2010310B55C6904F4787275
:102F10005A61A30622D460061AD4210612D4E2050F
:102F20000AD4A30504D5104809214368DB6C9847EF
:102F3000BDE81040FEF71CBA0B48082143685B6CE3
:102F40009847EEE7084807214368DB6B9847E6E7B8
:102F50000548062143685B6B9847DEE70248052178
:102F60004368DB6A9847D6E76C110020AFF3008016
:102F70004FF48063C4F2010310B55C6904F47C4231
:102F800061055A612AD4220522D4E3041AD4A0048C
:102F900012D461040AD4220404D513480F214368D3
:102FA000DB6F9847BDE81040FEF7E2B90E480E21EE
:102FB00043685B6F9847EEE70B480D214368DB6E73
:102FC0009847E6E708480C2143685B6E9847DEE7C0
:102FD00005480B214368DB6D9847D6E702480A2174
:102FE00043685B6D9847CEE76C110020AFF300801B
:102FF00041F26C10C2F2000008B542684FF48063E1
:10300000C4F201034FF480315961D2F884301021A9
:103010009847BDE80840FEF7ABB900BFAFF30080AA
:1030200041F26C10C2F2000008B542684FF48063B0
:10303000C4F201034FF400315961D2F88C301121F0
:103040009847BDE80840FEF793B900BFAFF3008092
:1030500041F26C10C2F2000008B542684FF4806380
:10306000C4F201034FF480215961D2F89430122147
:103070009847BDE80840FEF77BB900BFAFF300807A
:1030800008B506206021FEF7CBF907206021FEF786
:10309000C7F908206021FEF7C3F909206021FEF777
:1030A000BFF90A206021FEF7BBF917206021FEF767
:1030B000B7F928206021FEF7B3F901206021FEF75F
:1030C000AFF929206021FEF7ABF92A206021BDE885
:1030D0000840FEF7A5B900BFAFF30080AFF3008052
:1030E00041F26C10C2F20000FFF742B9AFF300806A
:1030F0004268012000FA01F070B44FF4806552F884
:103100003130C4F20105AE68C44313F0010F14BF9F
:103110000643264013F0020F4FF48063C4F201030C
:10312000AE60DD6814BF05432540DD6002EBC103DE
:103130005B682BB34FF48063C4F201031D6828431E
:103140001860586804405C600F2917D852F83100A5
:1031500001F003039B000F2202FA03F2C0F30310F5
:1031600000FA03F089080023C4F20103023153F886
:10317000214024EA0202024343F8212070BC704738
:103180004FF48063C4F201035D68284358601868F7
:1031900004401C60D8E700BFAFF30080AFF30080AD
:1031A000012303FA01F14FF48063C4F201031868AC
:1031B000CA43104018605868104058609868104022
:1031C0009860D8680240DA6059617047AFF30080B8
:1031D00038B503780546012B13D0002404E00134F0
:1031E000FFF786FF132C0BD06B68214653F8343061
:1031F00028465B07F3D40134FFF7D2FF132CF3D139
:1032000038BDFFF73DFFE8E7AFF30080AFF3008084
:1032100008B50A4B00211878DA680428118204D115
:10322000022018701180118291815B6803485B68ED
:103230009847BDE80840FEF79BB800BF7411002016
:1032400008B50A4B00211878DA680428118204D1E5
:10325000022018701180118291815B6803485B68BD
:103260009847BDE80840FEF783B800BF84110020EE
:1032700008B50A4B00211878DA680428118204D1B5
:10328000022018701180118291815B6803485B688D
:103290009847BDE80840FEF76BB800BF94110020C6
:1032A00008B541F27413C2F200034FF43052C4F275
:1032B00001021846DA60FFF78BF841F28413C2F27C
:1032C000000318464FF08042DA60FFF781F841F2C0
:1032D0009413C2F200034FF44062C4F20002184695
:1032E000DA60BDE80840FFF773B800BFAFF30080B5
:1032F000037810B5012B04460ED06368A1681A68E4
:10330000E368B1FBF2F10139002289B208201A808A
:10331000988019859A8110BD224B98421DD0224B6E
:10332000984232D0214B9842E7D14FF48053C4F2F7
:103330000203DA69322042F00802DA611A6942F0C7
:1033400008021A6100221A617021FEF769F84FF431
:103350002243C0F24A43A360CFE74FF48053C4F244
:1033600002039A69192042F400629A61DA687021B6
:1033700042F40062DA600022DA60FEF751F84FF49E
:103380002243C0F24A43A360B7E74FF48053C4F22C
:103390000203DA691C2042F00102DA611A6942F084
:1033A0000102CEE774110020841100209411002046
:1033B000C368012200200139D9629A8258621882BA
:1033C0009A8105221A807047AFF30080AFF3008026
:1033D0004FF48053C4F202039A6930B442F4FE728F
:1033E00042F001029A6102684FF40063C4F20103E3
:1033F000DA6081684FF4406259604168C4F20102AA
:103400001960C1684FF48053D1604169C4F201036F
:10341000516001694FF4A05411608269C4F2010443
:10342000DA60026A4FF4C0515A60C269C4F2010105
:103430001A60436A4FF4E052E360C36AC4F20102C7
:103440006360856A4FF400532560046BC4F2010386
:10345000CC60846B4C60446B0C60C16BD160416C80
:103460005160016C1160826CDA60026D5A60C26C4E
:103470001A6030BC704700BFAFF30080AFF300802C
:10348000032AF0B408BF016102D0042A08BF4161D9
:10349000114C0023A75C08261C461A461D46240131
:1034A00012012D011B0111F0800F0CBF42F00F0221
:1034B0003B4311F4004F0CBF45F00F053C4349005E
:1034C000013EECD141680D402C43446001680A4044
:1034D00013430360F0BC7047D0820008AFF3008054
:1034E000026B436B30B4002114684FF400451D801B
:1034F00019809980998223680F2123F00F0323609C
:10350000147AC36A01FA04F450681A6804601468F3
:10351000586824F00F0414601B7A01FA03F101606B
:1035200030BC7047AFF30080AFF30080AFF3008092
:1035300038B50546202383F31188C4694CB1FFF7E1
:10354000CFFF0023EB614FF0FF3320466362FEF7AD
:10355000C7F8002383F3118838BD00BFAFF30080A4
:1035600038B50B070546446B01D5FDF7C1FE2B6B43
:103570001A685968106820F00F0010601B7A0F223B
:1035800002FA03F30B60A3889BB243F40073A38099
:1035900038BD00BFAFF30080AFF30080AFF3008011
:1035A0000A0770B50546446B2BD4EA6A20231168DC
:1035B00050680E6826F00F060E60127A0F2101FA8D
:1035C00002F20260A28822F480521204120CA2803D
:1035D000228822F480621204120C2280228892B285
:1035E00042F40072228083F31188EB692BB1002230
:1035F000EA6118465A62FEF773F8002383F31188D4
:1036000070BDFDF775FED0E7AFF30080AFF300802B
:103610003B4A70B5546B0223218BA58AC0F2030389
:10362000ADB245EA014121F07F41994243D00ED825
:103630000123C0F20303994201D1138C238215F0B8
:103640000A0F18BF238BBDE87040FDF791BE82239F
:10365000C0F20703994221D08423C0F207039942A4
:10366000EDD1D36A1B685E68002E3FD1A18820236C
:1036700021F400710904090CA180218889B241F468
:103680000071218083F31188D06918B14662D66138
:10369000FEF726F8002383F31188D0E7A388126B86
:1036A00023F400731B0412681B0CA380136843F0FF
:1036B00001031360C3E7A388D26A23F400731B04D9
:1036C00012681B0CA380136843F001031360A388E6
:1036D0009BB243F48053A3805368012BAFD8238857
:1036E00023F480631B041B0C2380A8E72388118C20
:1036F0009BB241F0010143F4A06311842380A2E74F
:10370000A4110020AFF30080AFF30080AFF300807E
:103710003949F8B5486B0C6B828A266892B202F47C
:103720005F4383F47F4383F0FF0383823768CB6A70
:1037300027F00F073760277A0F2505FA07F7666825
:103740001C68376027685E6827F00F0727601C7ABF
:1037500002F4807305FA04F59BB2356003B10123CE
:1037600002F40074A4B28B6014B143F002038B60C6
:1037700002F48064A4B26CB1848843F0040324F49E
:1037800000742404240C84800488A4B244F40074DB
:1037900004808B6002F4006080B210B143F0080333
:1037A0008B6002F4804080B210B143F020038B6044
:1037B00002F4805080B210B143F010038B6010040B
:1037C00044BF43F040038B6004D41BB9BDE8F8400C
:1037D000FDF7CEBD202383F31188C86938B16FF09F
:1037E00001034362044B0022DA61FDF779FF0023F5
:1037F00083F31188EAE700BFA4110020AFF3008033
:1038000010B541F2A414C2F200042046FEF718FEDF
:10381000064B4FF4A842C4F20002A3F10C010020B1
:10382000E0616263E362216310BD00BF888200082B
:10383000F8B503789A2282628A22012B04464262FA
:10384000456B6AD02A46E16A236B0868196805F15E
:10385000100383608B604FF400432B8000264FF4ED
:1038600010632E80AB809388616823F03F031B04B4
:103870001B0C48680F7A9380948848F2A063A4B226
:10388000C0F2010344F024049842948039DD4FF4DF
:10389000D453C0F206039842C8BF304618DC022F4A
:1038A00070D0032F01BF00EB80004FF4A24300EB68
:1038B0008000C0F2252301BF93FBF0F06FEA804047
:1038C0006FEA904080B218BF48F6FF700B23138454
:1038D00090830978138802299BB24DD0032908BF31
:1038E00043F00A0301D0012906D013802B889BB234
:1038F00043F001032B80F8BD23F00A031B041B0CCB
:10390000F3E74FF4A243C0F22523400093FBF0F00D
:1039100000052523000D1384DAE7214B984291D14D
:103920004FF48056C4F2020633690A2143F40013AF
:103930003361034600201B4A3061E06AFFF728F834
:10394000194A23460A21206BFFF722F8F3691F204A
:1039500043F40013F361A021FDF762FD2020A021B4
:10396000FDF75EFD626AA36A42F4805243F480531D
:103970006262A362626B66E74FF6F771194041F02D
:103980000203B2E74FF4A24300EB4000C0F225234C
:1039900093FBF0F06FEA40406FEA504080B295E749
:1039A000A4110020A135000861350008AFF30080A4
:1039B000037810B5012B04460AD0FFF791FD206B68
:1039C000FFF72EF8E06AFFF72BF8094B9C4200D076
:1039D00010BD1F20FDF74CFD2020FDF749FD4FF4E1
:1039E0008053C4F20203DA6922F40012DA61EFE7CD
:1039F000A4110020AFF30080AFF30080AFF300808C
:103A00002DE9F04687B0109D91466A1C06468A460D
:103A10001F46446B05D001A82946334A3346FDF7BB
:103A2000E7FD002383F31188F16A326B086812689E
:103A3000B360B36A4FEA4A0A716AA6F820A013601D
:103A40000E9BC2F80C9057600160C3600F9B4360EF
:103A500002E0002383F31188228B202302F002026C
:103A600092B222B9228802F4007292B25AB183F360
:103A700011886B1CEDD0049A002AEAD14FF0FF3078
:103A800007B0BDE8F08683F31188681C1AD0049B48
:103A9000002BF3D0A388154D9BB243F40073A38091
:103AA0002288AB6992B242F4807222800220F361D4
:103AB000FDF726FE049B13B101A8FDF7B9FDAB6924
:103AC000586ADDE7A388094D9BB243F40073A380D5
:103AD0002288AB6992B242F4807222800220F361A4
:103AE000FDF70EFEEBE700BF31350008881000201F
:103AF0000B0700D47047FDF7FBBB00BFAFF300809E
:103B00000A0770B5044630D4626A236A10685568A3
:103B100006680F2126F00F060660107A1A6801FA6F
:103B200000F028601568606825F00F0515601D7AA3
:103B30005A6801FA05F1036811609BB104222270F2
:103B4000204698472378042B0CD0A06848B1002564
:103B5000A560202383F31188FDF7C2FD2B4683F374
:103B6000118870BD02232370EFE7FDF7C1FBCBE79F
:103B700010B541F2E014C2F2000441F2DC13C2F2CB
:103B800000034FF6FF7220461A80FEF761FD084BD6
:103B90004FF4405203F10C01236241F20A03C4F2D4
:103BA0000102A3620E33E2616162E36210BD00BFF5
:103BB0004C820008AFF30080AFF30080AFF30080C9
:103BC000037810B5012B044627D0C3696268A06A48
:103BD000528902F4006189B2B9B1E16A20F47060DF
:103BE00021F4706140F4A06041F4A061A062E16240
:103BF00042F44172002119801A8007229A801A88A3
:103C000092B242F040021A8010BDE16A20F4706066
:103C100021F47061A062E162EAE7114B984209D099
:103C2000216A626AE3690868116803F10C02826024
:103C30008A60CBE703460A210A4A006AFEF7A8FE1B
:103C4000094A2346606A0A21FEF7A2FE4FF4805318
:103C5000C4F202039A6942F480529A61E0E700BF1D
:103C6000E0110020013B0008F13A0008AFF30080AA
:103C7000436801211A895B6801FA02F25A617047B0
:103C8000436801211A895B6801FA02F21A617047E0
:103C9000C26991811389D907FCD5908980B2704798
:103CA0004FF46053C4F201039A8992B242F0800249
:103CB0009A817047AFF30080AFF30080AFF30080CC
:103CC0004FF48843C4F200039A8992B242F0800212
:103CD0009A817047AFF30080AFF30080AFF30080AC
:103CE0004FF49043C4F200039A8992B242F08002EA
:103CF0009A817047AFF30080AFF30080AFF300808C
:103D00002DE9F041D0F8D4500646AF892C88A98817
:103D1000A4B22207BFB21FFA81F849D104F480731C
:103D20009BB2002B32D104F020039BB213BB07F0EF
:103D300080039BB223B104F080039BB2002B58D1C7
:103D400004F04004A4B29CB1202383F31188102115
:103D5000301DFDF7DDFF002383F311884FF6BF739D
:103D60003B40AB812B8823F040031B041B0C2B80B2
:103D7000BDE8F081202383F3118830465FFA88F193
:103D8000FEF73EFC002383F31188D0E7202383F362
:103D900011884FF40071301DFDF7BAFF002383F343
:103DA00011882B8823F480731B041B0C2B80BAE72B
:103DB00004F0080189B2002914BF80210021E30723
:103DC00004F002039BB248BF41F020010BB141F067
:103DD000400104F004039BB20BB141F48071202335
:103DE00083F31188301DFDF793FF002383F31188BF
:103DF00094E7202383F3118806F13000FEF7D0F812
:103E00000028A4BF80B2A88003DB002383F31188BD
:103E100096E7301D0821FDF77BFF27F0C00343F034
:103E20004003AB81F1E700BFAFF30080AFF3008048
:103E300041F2102008B5C2F20000FFF761FFBDE8B3
:103E40000840FDF795BA00BFAFF30080AFF30080E4
:103E500041F2E82008B5C2F20000FFF751FFBDE8CB
:103E60000840FDF785BA00BFAFF30080AFF30080D4
:103E700041F2C03008B5C2F20000FFF741FFBDE8D3
:103E80000840FDF775BA00BFAFF30080AFF30080C4
:103E900070B541F21026C2F2000643F6A142304648
:103EA0000021C0F6000241F2E825FEF771FBC2F2E4
:103EB00000054FF4605343F6C142C4F201032846A3
:103EC0000021C0F6000241F2C034C2F20004C6F87C
:103ED000D430FEF75DFB4FF4884343F6E142C4F271
:103EE000000320460021C0F60002C5F8D430FEF7DA
:103EF0004FFB4FF49043C4F20003C4F8D43070BDBC
:103F000038B5037A304C0546002918BF0C46012B02
:103F10002AD0D5F8D4304FF46052C4F20102934253
:103F200021680BBF4FF422424FF4A242C0F24A4232
:103F3000C0F22522B2FBF1F292B21A81A288E08887
:103F4000218942F4045240F0400041F0010142F066
:103F50002C0292B280B289B2188299829A81002290
:103F60001A801A889B8838BD184B984212D0184B7B
:103F700098421CD0174B9842CBD14FF48053C4F2D7
:103F80000203DA69272042F48022DA61C021FDF7BA
:103F900047FABEE74FF48053C4F202039A69252022
:103FA00042F480429A61C021FDF73AFAB1E74FF43A
:103FB0008053C4F20203DA69262042F40032DA6147
:103FC000C021FDF72DFAA4E7F082000810120020AE
:103FD000E8120020C0130020AFF30080AFF3008090
:103FE000FEF786BDAFF30080AFF30080AFF3008033
:103FF0000023C4F201035A6842F01A025A60704763
:10400000F0B400F10B0C00F10A050C46B1FBF2F61E
:1040100002FB161101F13003392BC8BF01F1370340
:10402000DBB2B4FBF2F42F46314605F80139002C1F
:10403000ECD1C7EB0C013A46411801E012F8013F00
:1040400000F8013B8842F9D1F0BC7047AFF3008023
:104050000EB42DE9F04F86B00FAB53F8044B0DF1C1
:104060000D0C0DF10C080293C8EB0C03CDF800C049
:1040700006460193254615F8011B59B125290ED096
:1040800033682C4630469B682546984715F8011B37
:104090000029F3D106B0BDE8F04F03B07047637854
:1040A0002D2B18BF4FF0000900F0128120272E2B76
:1040B00018BF302B02D16B78302701352C4602997E
:1040C000002506E00A78043105EB8505237802EB2C
:1040D0004505A3F13002D2B20134092AF4D92A2BC2
:1040E000F0D000202E2B029149D003F0DF024C2AA1
:1040F00055D12278012112B1013413460121A3F1D7
:104100004402342A00F2DC80DFE812F0CA00DA0050
:10411000DA00DA00DA00CA00DA00DA00DA00DA00DF
:10412000DA00E000DA00DA00DA00DA00DA00C200D1
:10413000DA00DA00B500DA00DA00DA00DA00DA00D4
:10414000DA00DA00DA00DA00DA009500CA00DA00F4
:10415000DA00DA00DA00CA00DA00DA00DA00DA009F
:10416000DA00E000DA00DA00DA005000DA00C2001B
:10417000DA00DA00B5000A78043102EB4C0014F8DA
:10418000013B00EB800CA3F13002D2B2092AF4D932
:104190002A2BF0D003F0DF024C2A0291A9D0A3F120
:1041A000410119298CBF00210121A8E7029B48F297
:1041B0006032D3F800A0C0F60002BAF1000F08BFC9
:1041C000924604339AF80020029347F6FF730028C2
:1041D00008BF1846002A00F09C805346504402E075
:1041E000904200F0928059785A1C13460029F7D16A
:1041F000CAEB020BCBEB0505202725EAE575B9F1E3
:10420000000F29D0BBF1000FC8BF0AEB0B0907DD77
:1042100033681AF8011B9B6830469847CA45F7D1A6
:10422000002D3FF427AF336830469B6839469847E6
:10423000013DF8D11EE7029BDDF804B01A68043393
:1042400002938DF80C202027C246CBEB050525EA0A
:10425000E575B9F1000FD5D16D42002DD2D09AF895
:1042600000102D2946D0336830469B683946984760
:104270000135F8D1C6E71022029B69B1191D0291E0
:1042800019684046FFF7BCFEC246C8EB000BDCE7EE
:104290000A22029B0029F1D1181D19680290F0E74B
:1042A000029B1A1DC9B9196802920029A8BF40468D
:1042B00019DB0A22FFF7A4FEC246C8EB000BC4E7D5
:1042C0008DF80C30DDF804B0C246BEE70822D3E713
:1042D000A51CA3784FF00109E8E6196802920029AD
:1042E000A8BF4046E5DA2D238DF80C3049420DF188
:1042F0000D00DEE7302FB6D1336830469B68984713
:104300000AF1010A0BF1FF3BADE7CAEB000B2027D6
:104310009BE79346202798E7AFF30080AFF3008038
:10432000012970B50646144647DD15682949284617
:10433000FCF73EFC70B9656827492846FCF738FC55
:10434000002831D028462549FCF732FC03460028D6
:1043500023D0256828462249FCF72AFC58B965680D
:104360001D492846FCF724FC70B128461B49FCF780
:104370001FFC034600B170BD1A4A1B49304613703A
:10438000BDE8704003F09CBB164B01223046174934
:104390001A7003F095FB6568E7E7154A3046154942
:1043A000137003F08DFBD4E7114B01223046124904
:1043B0001A7003F085FB6568C4E7104903F080FBC1
:1043C00030460F4903F07CFB0E493046BDE8704093
:1043D00003F076BBF883000800840008148400080A
:1043E00028840008390C0020448400083084000828
:1043F000380C00201884000804840008B0830008EA
:10440000D0830008E0830008AFF30080AFF30080A2
:10441000002908B504DD0E49BDE8084003F050BB93
:104420000C4903F04DFB6420FDF79AFABFF34F8F60
:104430004FF46D42CEF20002D168042301F4E06132
:10444000C0F2FA530B43D360BFF34F8FFEE700BFB8
:104450005884000868840008AFF30080AFF3008040
:10446000F0B5002985B0054605DD1B4905B0BDE85E
:10447000F04003F025BB194903F022FBFDF728FBB0
:10448000174F04461AE003F01BFBA268E368266A94
:104490000092A27F1349013A0192207F224657F8E9
:1044A000200003960290284603F00AFB2046FDF701
:1044B0001FFB04461420FDF753FA54B1A3692846A4
:1044C00009491A46002BDED10849284603F0F8FABC
:1044D000DBE705B0F0BD00BF788400088C840008DD
:1044E00070830008E8840008CC840008D4840008A5
:1044F00030B5002983B0044604DD134903F0E0FA27
:1045000003B030BD01A90020FDF79AFE0546FDF776
:10451000E7FD0E490246204603F0D2FA2A4620461D
:104520000B4903F0CDFA019A20460A4903F0C8FA74
:10453000094B0A4A2046D218094B0A49D21A134697
:1045400003F0BEFADCE700BF088500081885000804
:104550003885000850850008388D0000700F002055
:104560000008002070850008AFF30080AFF30080E2
:10457000002903DD0449054A03F0A2BA044B0549AA
:10458000DA6803F09DBA00BF98850008A48500088A
:1045900078100020AC850008AFF30080AFF30080F6
:1045A00010B5002982B0044606DD1C491C4A02B041
:1045B000BDE8104003F084BA1A491B4A03F080FAA0
:1045C00020461A491A4A03F07BFA204619491A4A2A
:1045D00003F076FA20461949194A03F071FA204689
:1045E0001849194A03F06CFA20461849184A03F092
:1045F00067FA20461749184A03F062FA204617491D
:10460000174A03F05DFA174B204600931649174AE4
:10461000174B03F055FA02B010BD00BF9885000893
:10462000B4850008BC850008D0850008D88500083E
:10463000EC850008F88500080C8600081486000840
:10464000288600083486000848860008608600082E
:10465000748600089C860008B0860008BC860008A6
:10466000D086000800870008D8860008F086000879
:10467000FC860008AFF30080AFF30080AFF300804A
:1046800038B504460D4698B128600C492046FCF721
:104690006FFB241820462021FCF7B2FA286018B1DD
:1046A000002300F8013B2860237823B1204638BD61
:1046B0000C68002CE9D10024204638BDD0800008C9
:1046C00041F2D843C2F200031B607047AFF3008091
:1046D00000B544F6E10383B00090C0F6000300206B
:1046E000FDF7D6F903B000BDAFF30080AFF3008053
:1046F0002DE9F04FDFF8E08185B0D8F80C30DFF815
:10470000C4910F460193834692460E460C460025FF
:10471000DBF8003058465B680DF10F010122984725
:10472000002800F0B7802BB2012B32D0022B9DF86D
:104730000F3035D01B2B00F0A38050D8082B00F091
:1047400085800D2B5DD0042B53D01F2BE0D90AF1AF
:10475000FF32BA189442DBD299F8002004F8013BEA
:10476000002AD5D040F63942C2F200021378002B5D
:1047700040F09280A64208D016F8012B58464E49C8
:1047800003F09EF9B442F7D12646D8F80C300193D5
:10479000BEE79DF80F3000255B2BCBD10225B7E794
:1047A000412BB4D199F80030002B6DD10AF1FF36BE
:1047B000BE19B44278D241F29842C2F20002157892
:1047C000002D74D03D4A234603E012F8015F002D0E
:1047D00058D003F8015BB3421C46F6D197E77F2B14
:1047E00034D0C92B2DD0212BAFD16420FDF7B8F8E0
:1047F0008EE75846324903F063F9012005B0BDE861
:10480000F08F304B00221B782270A3B1B44204D049
:1048100058462D49324603F053F93A78002A48D0D9
:104820002A4B03F8012C17F8012F19460133002AEF
:10483000F7D100230B705846254903F041F90020B9
:10484000DCE74FF4FA70FDF78BF861E7BC423FF408
:104850005FAF99F8003043B9013C264658E716F897
:10486000012B5846144903F02BF9B442F7D1082222
:10487000584618491346013C03F022F9264647E7FB
:10488000012545E71E4643E758460F490B4A03F00A
:1048900017F98BE70120B1E7D8F80C30019A9B1A81
:1048A000322B3FF667AF70E72646002530E72646F5
:1048B0002EE70249BDE700BF1887000898140020C2
:1048C0000C870008380C0020C888000899140020C4
:1048D000748400081087000878100020AFF300806F
:1048E0002DE9F043664B06689B69664A99B0D0F89B
:1048F000048065499A61304603F0E2F86349304626
:1049000003F0DEF86249634A634B304603F0D8F89F
:10491000624B304600936249624A634B03F0D0F821
:10492000DFF8A4916149304603F0CAF8304608A97F
:104930004022FFF7DDFE044600282FD102A908A877
:10494000FFF79EFE02A90746002002ADFFF798FE82
:1049500050B1042C1BD045F8040F02A900200134EB
:10496000FFF78EFE0028F4D118AA02EB840343F867
:10497000540C002FD6D038464D49FCF719F9F8B938
:1049800084B130464B494A4A03F09AF8CAE73046A8
:10499000494903F095F800230793C3E73046474998
:1049A00003F08EF8202383F3118800214448FDF79B
:1049B000AFF90020FCF7FCFF002019B0BDE8F08340
:1049C00038464049FCF7F4F830B93046CCB13949A3
:1049D0003C4A03F075F8A5E7D9F80000002833D069
:1049E000394D03E055F8080F00282DD03946FCF763
:1049F000DFF80028F6D16B683046214603AA9847B5
:104A000090E7324903F05CF8D9F800202E4C3AB117
:104A100030462F4903F054F854F8082F002AF7D1F4
:104A2000B8F1000F0BD0D8F8002042B14446304610
:104A3000274903F045F854F8082F002AF7D13046EB
:104A4000244903F03DF86DE7B8F1000F0DD0D8F818
:104A5000000050B1454602E055F8080F28B139462C
:104A6000FCF7A6F80028F7D1C5E730461A493A46C0
:104A700003F026F83046194903F022F852E700BF48
:104A8000881000201C870008248700082C87000855
:104A900048870008D0850008D086000800870008F5
:104AA00060870008F0860008FC860008748700080C
:104AB000A087000898850008888700087C87000880
:104AC000D8140020A88700083C0C0020B0870008FC
:104AD000C887000874840008C8880008CC870008CC
:104AE0002DE9F0434B4B4C499A69DFF848814B4B19
:104AF000916183B0C8F8008003F5F07100221A605C
:104B00001A7518338B42FAD17820FCF729FF01F08F
:104B10002FFB30B96420FCF723FF01F029FB0028AC
:104B2000F8D04FF4FA60FCF71BFF3D4B0BB103F0DC
:104B3000AFF93C4F3C4E1020FCF712FF01F030FF64
:104B400000F0800084B2002CF5D101F029FF00F0C4
:104B5000400085B2002D51D1009534484FF42C719E
:104B60004122334BFCF7E4FE2C46814601F018FF4E
:104B700000F0C000844205D11020FCF7F1FE3B7824
:104B8000002BF3D03220FCF7EBFE202383F31188B7
:104B9000D8F80030434503D026480021FDF7B8F887
:104BA000002383F311883220FCF7DAFE4846FCF735
:104BB00027FF214C01F004F802E01834B4420DD074
:104BC00054F8140C0028F8D02578002DF5D1FCF706
:104BD00017FF44F8145C1834B442F1D13B78002B31
:104BE000A9D03220FCF7BCFE3B78002BA3D03220AA
:104BF000FCF7B6FE3B78002B9DD0F2E700940B4803
:104C00004FF42C7141220D4BFCF792FE402481465B
:104C1000ACE700BF88100020A08800081019002011
:104C2000917E0008701D0020041B0020E01400206D
:104C3000F17E0008740C002024190020A17E0008D9
:104C4000F8B5104B104A9B6978209A61FCF788FEF2
:104C50001020FCF785FE00256E1CB6B234B220464B
:104C600000F09EFF0746204600F0E2FF394602466C
:104C700028B201F0BDFA082C3546EDD101F0F0FA6A
:104C8000E6E700BF88100020A8880008AFF3008086
:104C9000164AF0B495690023154C0F46A8611A46D0
:104CA000E05803F1180385420DD00132142AF7D1E0
:104CB00000231A46E0580E4E183358B10132142A18
:104CC000F8D1F0BC70470A4B02EB420203EBC20280
:104CD0001775F6E702EB4202D40033190548191D97
:104CE000012235511F75F0BCFCF7CABF88100020A7
:104CF00010190020740C0020AFF30080AFF3008087
:104D00000021FFF7C5BF00BFAFF30080AFF3008005
:104D100001462DE9F0414FF0FF30FDF711F8214E2B
:104D2000B16920B94B7F03F00403DBB2DBB1002390
:104D30001D4D1C46EA5803F118038A4207D001347E
:104D4000142CF7D10020BDE8F041FCF751BE6700FC
:104D5000154B3A1903EBC2031B7D33B14B7F03F0B4
:104D60000403DBB20BB9BDE8F08107EB04084FEA9E
:104D7000C80805EB08010D480431FCF799FF0C4BFE
:104D800023B1094B53F8080002F02AFFB3695B7F97
:104D900003F00403DBB2002BD4D03B19DB0000226C
:104DA000EA50CFE78810002010190020740C002072
:104DB000E17B0008AFF30080AFF30080AFF3008029
:104DC00010B582B001F0ACF901F0A2F801F0B0FD2D
:104DD00002F0E6FE27482849FDF702FC002025499D
:104DE00001F0E6FB0020254B0146254A01F050FC6E
:104DF000244A0020012101F04BFC23481E49FDF705
:104E0000EFFB0120204901F0D3FB1C4B01200021C6
:104E10001B4A01F03DFC012001461C4A01F038FC10
:104E200000F0D6FBFDF704FB19481A4901F0D8FE43
:104E3000194B0BB103F014F8002400F029FA00F02C
:104E40005FFC00F085FD00F09BFD00F0D1F84A22E8
:104E50004FF4C071114B00941148FCF769FD0094A8
:104E60004FF4207148220F4B0F48FCF761FD02B050
:104E700010BD00BFE812002080880008D08600081E
:104E8000C0880008CC880008C0130020DC88000817
:104E9000A411002010120020617E0008414C00087F
:104EA00090170020E14A0008F01A0020AFF30080BC
:104EB00041F2102048F69001C2F20000C0F6000155
:104EC000FDF78EBBAFF30080AFF30080AFF300803F
:104ED000202383F311880D4B002209B203E0013235
:104EE0000C330C2A0DD0B3F900008842F7D1586872
:104EF0000028F4DB064B02EB420203EB8203013095
:104F00009860002383F31188704700BF7C0C002059
:104F1000780C0020AFF30080AFF30080AFF3008087
:104F20000B2808DC0D4A00EB400080001318997133
:104F300011B1012909D07047B3F90430012101FAF8
:104F400003F110580322FEF79BBAB3F90420186846
:104F500001FA02F10622FEF793BA00BF780C002096
:104F60000B280CDC094B00EB400080001A18B2F94A
:104F7000042029B1012101FA02F21B581A6170477D
:104F8000012101FA02F21B585A617047780C002087
:104F9000F8B5002146000446104DFFF7C1FF331954
:104FA0009B00EF18E85803220D4BB98800F040F938
:104FB000B7F90430072B05D0341905EB840500231D
:104FC000AB60F8BD032C04BF4FF0FF336B67F3D029
:104FD000092C04BF4FF0FF33EB62EDE7780C0020A3
:104FE000D14E0008AFF30080AFF30080AFF3008034
:104FF00038B5094C04F1900502E00C34AC420AD0FB
:105000002368002BF9D134F9041C04480C34FDF753
:10501000C7F9AC42F4D138BD800C00206C110020DF
:105020002DE9F047002800F088800029C8BF464FCE
:1050300040F3878000F1060845464FF0000A0FFA5A
:1050400081F91BE0012925D00A292BD00C294AD04F
:105050000E2969D015F9063C15F8052C03EB43031E
:1050600007EB43035A7099700AF1010A35F8021CE4
:105070000FFA8AF20635914599805CDD15F8041C1B
:105080000029DFD115F9060CFFF74AFF15F8041CBB
:105090000129D9D115F9060CFFF742FF15F8041CB8
:1050A0000A29D3D14446002603E033B206344B45E7
:1050B00015DA14F8043C01360B2BF6D134F8020C47
:1050C00035F8023C9842F0D114F9062CC0B215F91B
:1050D000061C00F095FA33B206344B45E9DB15F8AF
:1050E000041C0C29B4D14446002603E033B2063434
:1050F000994515DD14F8043C01360D2BF6D134F832
:10510000020C35F8023C9842F0D114F9062CC0B2DA
:1051100015F9061C00F0CCFB33B206349945E9DCE6
:1051200015F8041C0E2995D115F9060CFFF730FF70
:1051300015F8041C8EE7BDE8F087034F0C213846B4
:1051400078E7BDE8F08700BF080D0020AFF30080CE
:1051500038B5002859D0002957DD013989B200F14E
:105160000C0301EB4101841D03EB410525E0062BF7
:1051700020D114F8020C14F9061C01F021FD14F8DA
:10518000020C14F8051C01F0FBFC14F9060C34F9B0
:10519000022C1E4900F07CFD14F9060C34F9022C97
:1051A0001B4900F085FD14F9060C1A4934F9022C4C
:1051B00000F08EFD0634AC4227D014F9060C14F82A
:1051C000051C00F015FD14F9060C14F8041C00F081
:1051D0001FFD14F8033C032BC9D114F9060C34F954
:1051E000022C0D4900F054FD14F9060C34F9022C80
:1051F0000A4900F05DFD14F9060C34F9022C084947
:10520000063400F065FDAC42D7D138BD116B000803
:10521000416B0008616B00083157000851570008C6
:1052200071570008AFF30080AFF30080AFF3008048
:1052300070B4144C072954F8315004EBC10605F042
:10524000F00542EA050244F83120736001D070BCD9
:1052500070474FF4C053C4F20103984202BF22F0DA
:10526000F00242F04002A263F1D04FF48053C4F246
:105270000103984202BF22F0F00242F02002A26332
:10528000E5E700BF500D0020AFF30080AFF30080D2
:1052900041F26C1040F65051C2F20000C2F200011F
:1052A000FDF76EB8AFF30080AFF30080AFF300807E
:1052B00010B4202383F311880E4B196E9A6E8C68FC
:1052C0009068B3F96410B3F96C2024FA01F120FA64
:1052D00002F201F0010102F0010291425A6D06D082
:1052E00001325A65002383F3118810BC7047013ADC
:1052F0005A65F7E7741D0020AFF30080AFF300801C
:1053000010B4202383F311880F4BD96FD3F8842076
:105310008C689068B3F98010B3F9882024FA01F101
:1053200020FA02F201F0010102F0010291421A6F2B
:1053300006D0013A1A67002383F3118810BC704726
:1053400001321A67F7E700BF741D0020AFF3008039
:1053500010B4202383F311880F4BD96FD3F8842026
:105360008C689068B3F98010B3F9882024FA01F1B1
:1053700020FA02F201F0010102F0010291421A6FDB
:1053800006D001321A67002383F3118810BC7047DE
:10539000013A1A67F7E700BF741D0020AFF30080E1
:1053A00010B4202383F311880E4BD9685A698C6896
:1053B0009068B3F91010B3F9182024FA01F120FA1B
:1053C00002F201F0010102F0010291421A6806D0D6
:1053D000013A1A60002383F3118810BC7047013230
:1053E0001A60F7E7741D0020AFF30080AFF3008070
:1053F00010B4202383F311880E4B996A1A6B8C68C2
:105400009068B3F92C10B3F9342024FA01F120FA92
:1054100002F201F0010102F001029142DA6906D0C4
:10542000013ADA61002383F3118810BC704701321E
:10543000DA61F7E7741D0020AFF30080AFF300805E
:1054400010B4202383F311880E4B596CDA6C8C68EE
:105450009068B3F94810B3F9502024FA01F120FA0A
:1054600002F201F0010102F0010291429A6B06D0B2
:10547000013A9A63002383F3118810BC704701320C
:105480009A63F7E7741D0020AFF30080AFF300804C
:1054900010B4202383F311880E4B196E9A6E8C681A
:1054A0009068B3F96410B3F96C2024FA01F120FA82
:1054B00002F201F0010102F0010291425A6D06D0A0
:1054C000013A5A65002383F3118810BC70470132FA
:1054D0005A65F7E7741D0020AFF30080AFF300803A
:1054E00010B4202383F311880E4BD9685A698C6855
:1054F0009068B3F91010B3F9182024FA01F120FADA
:1055000002F201F0010102F0010291421A6806D094
:1055100001321A60002383F3118810BC7047013AEE
:105520001A60F7E7741D0020AFF30080AFF300802E
:1055300010B4202383F311880E4B996A1A6B8C6880
:105540009068B3F92C10B3F9342024FA01F120FA51
:1055500002F201F0010102F001029142DA6906D083
:105560000132DA61002383F3118810BC7047013ADD
:10557000DA61F7E7741D0020AFF30080AFF300801D
:1055800010B4202383F311880E4B596CDA6C8C68AD
:105590009068B3F94810B3F9502024FA01F120FAC9
:1055A00002F201F0010102F0010291429A6B06D071
:1055B00001329A63002383F3118810BC7047013ACB
:1055C0009A63F7E7741D0020AFF30080AFF300800B
:1055D00010B40023074C1A46C3EBC3000133DBB2FF
:1055E00004EB8001052B0A8144F820204A60F3D1A6
:1055F00010BC7047741D0020AFF30080AFF3008033
:1056000004282DE9F04704460D46164603D80B2919
:1056100001DC0B2A01DDBDE8F087224AC0EBC003A4
:105620009B00D7184FF00009084642F803904946FE
:10563000C7F80490FFF774FCDFF8748005EB4503AE
:105640009B0008EB030258F803C0B2F804E0164BC5
:1056500060467146032253F82430C7F80CC0A7F8FF
:1056600010E0BD72FFF7E4FD30464946FFF758FCF5
:1056700006EB46039B0008EB030258F803E095880D
:105680000A4B704653F8243029460322FE72C7F8AD
:1056900014E03D83FFF7CCFD012307F1080A3B81AD
:1056A000BDE8F087741D0020F0880008108900080C
:1056B000780C0020AFF30080AFF30080AFF30080E0
:1056C0000B4BC0EBC00010B503EB8004B4F90830FD
:1056D000012B00D010BDB4F910100648FCF760FE95
:1056E0000448B4F91810BDE81040FCF759BE00BFDB
:1056F000741D00206C110020AFF30080AFF3008018
:1057000008B50020FFF7DCFF0120FFF7D9FF0220DA
:10571000FFF7D6FF0320FFF7D3FF0420BDE80840C2
:10572000FFF7CEBFAFF30080AFF30080AFF3008090
:1057300083B2042B08D8054BC0EBC00080001A18B8
:1057400018585368C01A704700207047741D002015
:1057500083B2042B07D8044BC0EBC00080001A585A
:105760001818511A41607047741D0020AFF3008073
:105770000428DFBF064BC0EBC00003EB800090F9AC
:105780000A00CCBF4FF6FF7080B200B2704700BF76
:10579000741D0020AFF30080AFF30080AFF30080F2
:1057A00070B50B4D82B006460024C4EBC40305EB74
:1057B0008302516822460134009155F82330304667
:1057C0000449E4B202F07CF9052CEED102B070BDC0
:1057D000741D002030890008AFF30080AFF3008013
:1057E00010B4202383F311880E4B0F491A7852010D
:1057F0008B189869B3F91C40806820FA04F0C00740
:105800000BD40A4A0A49D2680220526A08705A80A8
:10581000002383F3118810BC7047044BDB685B6A7C
:105820008B52F5E7881F00208C1F00209411002068
:105830002C200020AFF30080AFF30080AFF3008096
:1058400010B5202383F31188134B197891B10129E6
:1058500003D0002383F3118810BD104A1049127839
:105860000024520188188C5249F64042428003229B
:105870001A70EEE7094A1078094A02EB401292F9D1
:105880000E0001221A70FFF76BFB064849F64041F3
:10589000FCF7B6FDDDE700BF2C200020881F0020AC
:1058A0008C1F002094110020AFF30080AFF3008024
:1058B00004282DE9F04105460C46164603D80B296D
:1058C00001DC0B2A01DDBDE8F08108460121FFF76C
:1058D00027FB134F04EB44039B00FA181149FB58B4
:1058E000928801EB451530460021AC732B61AA82EA
:1058F000FFF716FB06EB46039B00FA189488FF5847
:105900002146094B38460322EE73AF61AC83FFF7A3
:105910008FFC032305F10808AB81BDE8F08100BFCF
:10592000780C00208C1F0020E1570008AFF30080A6
:10593000054B03EB40139A89D20700D47047034804
:10594000B3F91C10FCF72CBD8C1F00206C1100203B
:1059500008B50020FFF7ECFF0120FFF7E9FF022068
:10596000FFF7E6FF0320FFF7E3FF0420BDE8084050
:10597000FFF7DEBFAFF30080AFF30080AFF300802E
:1059800010B50F4C82B023680BB102B010BD0D48AA
:1059900001E0052BF9D000EB43129289591C02F06B
:1059A000020212B2CBB2002AF3D0002300930648C1
:1059B0004FF4C0714822054BFBF7BAFF2060E4E7C3
:1059C000001E00208C1F0020081E0020115A000815
:1059D00008B50B4B03EB4010B0F90C300830032B2B
:1059E00000D008BD012190F90600FFF7B9FA054B78
:1059F000054800220A211A70BDE80840FCF708BDDE
:105A00008C1F00202C20002094110020AFF3008078
:105A10002DE9F047DFF8F080364AD8F818303648DC
:105A20009A613649FCF7DCFC4CF609364CF6A705C2
:105A3000334CDFF8D890334FC8F63D56CDF6675556
:105A4000D8F818305B7F03F00403DBB2002B4DD194
:105A50002078DFF8B8A009EB4013B3F90C30032B22
:105A600003D01920FBF77CFFEAE7FFF7B1FFF868E6
:105A70003230FBF785FF224B1B7858010AEB0001FF
:105A8000B1F802C03AF80020C2EB0C0248F6B80C9C
:105A900062454A60C4BF4FF0FF324A6014DD48449B
:105AA0004FF6FF720281428105220133DBB2052BE2
:105AB00008BF002309EB4311B1F90C10032901D0F1
:105AC000013AF2D12370BBE7B2F1FF3FE7D086FB8A
:105AD000020C85FB020A9444D0175244C0EB6C1CA4
